:020000040800F2
:10000000D80600206901000859120008D112000822
:1000100000000000000000000000000000000000E0
:10002000000000000000000000000000D5120008E1
:100030000000000000000000D7120008D9120008DC
:100040007B0100087B0100087B0100087B010008A0
:100050007B0100087B0100087B01000829120008D1
:100060007B0100087B0100087B0100087B01000880
:100070007B0100087B0100087B0100087B01000870
:100080007B0100087B010008000000007B010008E4
:100090007B0100087B0100087B0100087B01000850
:1000A0007B0100087B0100087B0100085B1200084F
:1000B0007B010008000000007B0100080000000038
:1000C00000F002F800F040F80CA030C808382418FE
:1000D0002D18A246671EAB4654465D46AC4201D180
:1000E00000F032F87E460F3E0FCCB6460126334272
:1000F00000D0FB1AA246AB4633431847F82D000048
:10010000182E0000103A02D378C878C1FAD85207E6
:1001100001D330C830C101D504680C6070470000BD
:100120000023002400250026103A01D378C1FBD813
:10013000520700D330C100D50B6070471FB5C046D1
:10014000C0461FBD10B510BD02F016FE1146FFF7E8
:10015000F5FF00F029F902F02EFE03B4FFF7F2FFDD
:1001600003BC02F033FE0000074880470748004701
:10017000FEE7FEE7FEE7FEE7FEE7FEE70448054987
:10018000054A064B7047000069020008C1000008DC
:10019000D8000020D8060020D8020020D802002075
:1001A00000210020724A126801231B041A43704B7D
:1001B0001A6000BF6E4A126801235B041A401046A1
:1001C000491C002803D1052212029142F2D1684A4B
:1001D000126801235B041A4201D0012000E00020D4
:1001E000012840D1634A126810231A43614B1A60F8
:1001F0001A46126801231A435E4B1A605C4A526821
:100200005B4B5A601A4652685A601A4652683F233E
:100210001B049A43564B5A601A46526811231B041A
:100220001A43534B5A601A46126803061A43504B3E
:100230001A6000BF4E4A126801235B061A42F9D0C9
:100240004B4A526892089200494B5A601A465268CB
:1002500002231A43464B5A6000BF454A52680C239A
:100260001A40082AF9D1704710B5414800680121A9
:1002700008433F490860084640683F4908403C49F8
:100280004860084600683D4908403949086008460A
:1002900000680121890488433549086008464068A0
:1002A0003F2109048843324948600846C06A000972
:1002B0000001C8620846006BFF21543188432C4975
:1002C00008630846406B400840004863002088608F
:1002D000FFF766FF10BDF8B50025002400260027B3
:1002E000234840680C2108400546002D04D0042D09
:1002F00006D0082D2AD107E021482249086029E0CC
:100300001F482049086025E0194840680F218904EA
:100310000840044616484068012109040840064682
:10032000A00C841C002E04D11748604315490860B6
:100330000BE00F48C06A0007000F471C3946104801
:1003400002F06AFC60430F49086003E00C480D4965
:10035000086000BF00BF06484068F021084000095F
:100360000A490D5C07480068E84006490860F8BD86
:1003700000100240002002400CB8FFF8FFFFF6FE1C
:1003800000127A000000002000093D000400002057
:10039000002106E0002200E0521C204B9A42FBDBC9
:1003A000491C8142F6DB7047FFF75EFF02F08AFAD4
:1003B00002F0D8F902F012FA02F01CFB02F04CF93C
:1003C00002F050FB02F08AFB02F09AFB02F0A9FB5C
:1003D0006420FFF7DDFF02F0A5FA7D20C000FFF7E3
:1003E000D7FF02F097FA02F05EFA3220FFF7D0FF53
:1003F00002F098FA0120FFF7CBFF02F08BFA02F02F
:10040000CCF9C820FFF7C4FF02F04FFB04E002F074
:1004100091FAC820FFF7BCFFF9E7000080BB00009D
:1004200010B504460920C006844209D101214804C0
:1004300000F088FB00210120400400F083FB30E045
:100440006A48844208D10121000200F07BFB0021B0
:10045000200200F077FB24E06548844208D10121A6
:10046000000200F06FFB0021200200F06BFB18E09F
:100470006048844209D10121080500F063FB002196
:100480000120000500F05EFB0BE05B48844208D1D0
:100490000121880500F056FB00210120800500F0B5
:1004A00051FB10BDF0B50A4600210023002400BF17
:1004B0003DE001258D402B4615681D402C469C4291
:1004C00034D11579012D02D01579022D16D1856808
:1004D0004F000326BE40B543856055794E00B540B8
:1004E000866835438560858801268E40B5438580C2
:1004F000858896798E40B6B23543858005684F0071
:100500000326BE40B543056015794E00B540066828
:1005100035430560C5684F000326BE40B543C5603E
:10052000D5794E00B540C6683543C560491C1029D1
:10053000BFD3F0BD31490160002101710221417139
:1005400000218171C17170470122120413460B43CF
:100550001A46C261C161C261C269C269704702467E
:100560000020138A0B4201D0012000E000207047D8
:100570000146088A704702460020938A0B4201D048
:10058000012000E0002070470146888A70478161A1
:10059000704701857047002A01D0816100E0018524
:1005A000704781827047F0B5002300244D07EE0E9E
:1005B0001546B5402B46CD10AE0005462035AD5949
:1005C0004E07F70E0F26BE40B543CE10B6000746C5
:1005D0002037BD51CD10AE003D46AD591D432C46D0
:1005E000CD10AD003E467451F0BD0000000400483F
:1005F00000080048000C004800140048FFFF0000FD
:10060000FB48006801210843F94908600846406832
:10061000F8490840F649486008460068F64908402D
:10062000F349086008460068012189048843F049BD
:100630000860084640683F2109048843EC49486047
:100640000846C06A00090001C8620846006BFF2125
:1006500054318843E64908630846406B400840002F
:1006600048630020886070470021E14A917011467C
:100670008870704710B502460021002300205111F8
:10068000002902D1DA4C23680BE0012902D1D84CB1
:10069000236A06E0022902D1D54C636A01E0D44CFA
:1006A000636BD106C90E01248C401C4201D001208D
:1006B00000E0002010BD70B500240025002600BF1A
:1006C0001120FFF7D7FF0646641C05200002844274
:1006D00001D0002EF4D01120FFF7CCFF002801D06C
:1006E000012500E00025284670BD01460020C04AD3
:1006F0001068F82302469A431046CA001043BC4AC9
:1007000010607047002806D0B949096801221143DA
:10071000B74A116005E0B649096849084900B44A7A
:100720001160704701460020B14A506BF823024621
:100730009A431046CA001043AD4A506370470028E0
:1007400006D0AB49496B01221143A94A516305E028
:10075000A749496B49084900A54A516370470028D9
:1007600006D0A349496B04229143A14A516305E095
:100770009F49496B042211439D4A516370479C492C
:10078000096A490849009A4A11621146096A042215
:100790009143974A11621146096A014311627047F9
:1007A0009349096A18229143914A11621146096AD4
:1007B000014311627047002806D08D49496A012221
:1007C00011438B4A516205E08949496A4908490049
:1007D000874A51627047864A52683D231B049A43F8
:1007E000834B5A601A46526803460B431A43804BA8
:1007F0005A607047002807D07D4909680122120617
:1008000011437B4A116006E079490968012212060A
:100810009143774A1160704701460020744AD06ABC
:100820000009000102460A431046714AD06270472F
:10083000002807D06E4909680122D20411436C4A8E
:10084000116006E06A4909680122D2049143684AAE
:10085000116070476649C871704701460020644ABC
:1008600050688008800002460A431046604A506083
:1008700070475F4840680C210840704701460020DF
:100880005B4A5068F02302469A43104602460A43E8
:100890001046574A5060704701460020544A50683D
:1008A00007231B0202469A43104602460A4310469B
:1008B0004F4A506070474E49496801229203914364
:1008C0004B4A51601146496882B21143484A51600F
:1008D0001146096B92159143454A11631146096B04
:1008E000020C1143424A116370474149096B40228F
:1008F00091433F4A11631146096B014311637047ED
:100900003B49096B10229143394A11631146096B27
:100910000143116370473649096B89088900344ADD
:1009200011631146096B014311637047FEB504461C
:100930000025002600200190009000272C484068E8
:100940000C2108400546002D04D0042D05D0082DAB
:1009500028D105E02948206027E02848206024E0CD
:10096000234840680F218904084006462048406813
:100970000121090408400190B00C861C0198002850
:1009800003D11F48704320600BE01948C06A00077C
:10099000000F401C00901948009902F03DF9704387
:1009A000206002E01548206000BF00BF104840688A
:1009B000F021084005462D091248475D2068F8409F
:1009C00060600B48406807210902084005462D0A6F
:1009D0000C48475D6068F840A0600548006BFF2147
:1009E00001310840884211D00748E0601CE0000057
:1009F000001002400CB8FFF8FFFFF6FE00127A006C
:100A000000093D0014000020809FD5007448406814
:100A1000012189030840884203D0A0684008E060B3
:100A200002E0A0688008E0606D48006B402108404B
:100A3000402802D06B48206102E00120C003206101
:100A40006748006B10210840102802D0664860619A
:100A500001E0206860616248006B8007800F02D16E
:100A6000A068A06119E05E48006B8007800F012834
:100A700002D12068A06110E05948006B8007800F08
:100A8000022802D18003A06107E05548006B80076F
:100A9000800F032801D15448A061FEBD5049096A66
:100AA00001434F4A11627047002807D04C49096A38
:100AB0000122D20311434A4A116206E04849096AF9
:100AC0000122D2039143464A11627047002807D0A1
:100AD0004349096A012212041143414A116206E0A6
:100AE0003F49096A0122120491433D4A116270474D
:100AF000002905D03A4A52690243394B5A6104E051
:100B0000374A52698243364B5A617047002905D0F3
:100B1000334A92690243324B9A6104E0304A926947
:100B200082432F4B9A617047002905D02C4AD26925
:100B300002432B4BDA6104E0294AD2698243284BF5
:100B4000DA617047002905D0254A926A0243244B96
:100B50009A6204E0224A926A8243214B9A62704769
:100B6000002905D01E4AD26802431D4BDA6004E01A
:100B70001B4AD26882431A4BDA607047002905D0BD
:100B8000174A12690243164B1A6104E0144A1269AB
:100B90008243134B1A617047002905D0104A527ADC
:100BA00002430F4B5A7204E00D4A527A82430C4BB7
:100BB0005A7270470A48406A0121090608430849E9
:100BC0004862704701460020054A92680A4201D0F7
:100BD000012000E000207047014988727047000042
:100BE000001002401280000000127A0010B5044686
:100BF000F648844209D101218803FFF7B1FF0021A3
:100C000001208003FFF7ACFF0BE0F148844208D1DC
:100C100001214804FFF7B2FF002101204004FFF743
:100C2000ADFF10BDF0B589B005460E46002400208A
:100C3000089000BF00BF28684008400028606C682A
:100C400003210903204688430446B06804436C60CE
:100C50002C68E0480440F168706808433169084333
:100C600004432C60AC6803210902204688430446F3
:100C700070690443AC606846FFF758FED34885426C
:100C800002D10698089001E0029808902868012196
:100C9000C903084209D0326851001923089A5A43FF
:100CA000104601F0B9FF074608E0326891001923A9
:100CB000089A5A43104601F0AFFF074664213846B0
:100CC00001F0AAFF0401200964214843381A079063
:100CD00028680121C90308420AD00799C9000846BB
:100CE0003230642101F098FF4007400F044309E0CF
:100CF0000799090108463230642101F08DFF000791
:100D0000000F0443AC8109B0F0BD4B21C901016063
:100D1000002141608160C1600C21016100214161BD
:100D2000704710B5002242680F2424021346A343E3
:100D30001A464C680B6823438C682343CC682343D2
:100D40001A43426010BD0021016041608160C160B2
:100D50007047002904D0026801231A43026003E0AF
:100D600002685208520002607047002A03D00368EC
:100D70000B43036002E003688B4303607047002964
:100D800005D002680123DB031A43026004E0026815
:100D90000123DB039A4302607047002905D0826873
:100DA0000123DB021A43826004E082680123DB0234
:100DB0009A4382607047002905D042680123DB0412
:100DC0001A43426004E042680123DB049A43426014
:100DD0007047002905D0426801239B041A434260F2
:100DE00004E0426801239B049A4342607047002A52
:100DF00003D043680B43436002E043688B43436086
:100E00007047002905D042680123DB031A43426082
:100E100004E042680123DB039A43426070470029E3
:100E200005D042680123DB051A43426004E04268B2
:100E30000123DB059A43426070474269120E120695
:100E4000426142690A4342617047028AFF231B02E2
:100E50001A400282028A0A4302827047002904D0A3
:100E6000026802231A43026003E0026802239A43E5
:100E700002607047826803231B059A438260826880
:100E80000A4382607047002905D0426801231B0590
:100E90001A43426004E0426801231B059A43426002
:100EA0007047426803235B059A43426042680A43E5
:100EB00042607047C1690122D2039143C16170470A
:100EC000CA05D20D028570470146888CC005C00D49
:100ED000704742681202120A426042680B061A43C7
:100EE00042607047002905D0026801235B031A4362
:100EF000026004E0026801235B039A4302607047CA
:100F000002680123DB029A43026002680A4302601E
:100F10007047426810239A43426042680A43426025
:100F20007047426820239A43426042680A43426005
:100F30007047002905D0426801239B031A43426091
:100F400004E0426801239B039A43426070470029F2
:100F500004D0826808231A43826003E08268082371
:100F60009A4382607047028AD2B20282028A0B02DE
:100F70001A4302827047002904D0826820231A4352
:100F8000826003E0826820239A43826070470029D0
:100F900004D0826810231A43826003E08268102321
:100FA0009A4382607047826807235B049A43826099
:100FB00082684B041A438260704742691202120A27
:100FC000426142690B061A43426170470038014092
:100FD00000440040F3E9FFFF826804239A438260E3
:100FE00082680A4382607047002904D08268022325
:100FF0001A43826003E0826802239A43826070474A
:10100000002905D0826801239B031A43826004E013
:10101000826801239B039A438260704782680123A0
:10102000DB039A43826082680A43826070470268E9
:101030001F235B059A43026002684B051A43026056
:10104000704702681F231B049A43026002680B0466
:101050001A4302607047002A03D083680B43836001
:1010600002E083688B4383607047826801235B03DF
:101070009A43826082680A4382607047F8B50346EB
:101080000024002600960025002018460E04340E89
:10109000CEB200960127009EB7403D46022C01D1FA
:1010A000001D02E0032C00D10830002A03D006689E
:1010B0002E43066002E00668AE430660F8BD002AD3
:1010C00003D0038B0B43038302E0038B8B43038327
:1010D0007047826801231B039A43826082680A4337
:1010E0008260704702460020D3690B4201D0012084
:1010F00000E0002070470162704770B502460B4661
:1011000000240021002500201E04350ED9B201263E
:101110008E403146012D02D11668314006E0022D85
:1011200002D15668314001E0966831401C0C01261E
:10113000A6403446D6693440002903D0002C01D0A3
:10114000012000E0002070BD10B5002300220B0C30
:1011500001249C402246026210BD000000218278DA
:10116000002A27D0274A03231B02D21803789B109A
:101170009B00D15802789207D30EFF229A400B466B
:101180009343194642789207120E03789B07DB0EB1
:101190009A4011431B4A03231B02D21803789B1069
:1011A0009B00D1500278D306DB0E01229A40154BEA
:1011B0001A6007E00278D306DB0E01229A40114B39
:1011C00080331A607047002905D00F4A1269024324
:1011D0000D4B1A6104E00C4A126982430A4B1A61F2
:1011E0007047042806D10949096904221143074AB6
:1011F000116105E00549096904229143034A11611F
:101200007047000000E100E000ED00E000E000E0D9
:10121000002106E0002200E0521C304B9A42FBDB2A
:10122000491C8142F6DB704710B5202001F0F9F926
:10123000002805D001F0B9FA01E001F0B2FBFCE7AB
:10124000402001F0EEF9002805D001F0AEFA01E0EF
:1012500001F081FBFCE710BD704770B50024204908
:101260002048FFF73FFF002827D01E48FFF72CFE3D
:10127000AF2822D101F0A1FA0320FFF7C9FF1A48D5
:1012800001F09DF8041221461648FFF719FE00BF31
:1012900080211448FFF726FF0028F9D0124801F0FA
:1012A0008EF8054629460F48FFF70AFE00BF802149
:1012B0000C48FFF717FF0028F9D009490948FFF744
:1012C0001CFF002803D006490648FFF73DFF70BD0C
:1012D00000BFFEE7704770477047000080BB00000A
:1012E00005010500003801400024014010B501212E
:1012F0004807FFF743FC002101204007FFF73EFCB1
:1013000010BD30B5002200234F4C22683E2484409B
:101310001546A5432A464D680C682C4323461C46B7
:1013200084402243484C226030BD0021016041606E
:101330007047002907D0444A1268012383401A43AA
:10134000414B1A6006E0404A1268012383409A43E9
:101350003D4B1A60704710B5002908D03A4A5268D0
:1013600004090123A3401A43374B5A6007E0364A69
:10137000536804090122A2409343334A536010BDCD
:101380000022314A034608339A181160704701461B
:1013900000222D4A88082C308218106880B27047CD
:1013A000002908D0284A126801231B0383401A43EE
:1013B000254B1A6007E0244A126801231B0383406F
:1013C0009A43214B1A60704710B5002A07D01E4B74
:1013D0001B680C46844023431B4C236006E01A4BD9
:1013E0001B680C468440A343174C236010BD10B506
:1013F00002460020144B5B6B0C469440234201D004
:10140000012000E0002010BD0A4682400E4B5A63C6
:10141000704730B50246002000230B4C24680D466F
:1014200095402C402346084C646B0D4695402C4259
:1014300003D0002B01D0012000E0002030BD0A467F
:101440008240014B5A637047007400400168574A5C
:10145000114001600021016041608160C160544918
:10146000884208D15249083949680F221143504A2D
:10147000083A516035E04E491431884208D14C4950
:1014800008394968F0221143494A083A516028E076
:1014900047492831884209D14549083949680F220E
:1014A00012021143424A083A51601AE040493C3165
:1014B000884209D13E49083949680F221203114375
:1014C0003B4A083A51600CE039495031884208D112
:1014D0003749083949680F2212041143344A083A3F
:1014E0005160704710B500220268324B1A400C6AF6
:1014F0008B6823430C6923434C6923438C69234342
:10150000CC6923434C6A23438C6A23431A43026009
:10151000CB6843600B6883604B68C36010BD0021DB
:10152000016041608160C160016141618161C161AF
:101530000162416281627047002904D00268012380
:101540001A43026003E00268184B1A4002607047B9
:10155000416070470146486880B27047002A03D056
:1015600003680B43036002E003688B43036070472A
:10157000014600200E4A083A12680A4201D00120B2
:1015800000E0002070470A4908394860704701466A
:101590000020074A083A12680A4201D0012000E000
:1015A000002070470249083948607047FEFF00007C
:1015B000080002400F80FFFF10B50446FE48844239
:1015C00008D10121C014FFF7CBFA0021E014FFF786
:1015D000C7FA56E001208007844208D1012108465D
:1015E000FFF7CCFA00210120FFF7C8FA49E0F348E1
:1015F000844208D101210220FFF7C0FA0021022015
:10160000FFF7BCFA3DE0EE48844208D101211020EA
:10161000FFF7B4FA00211020FFF7B0FA31E0E948F3
:10162000844208D101218015FFF7A8FA0021A015F6
:10163000FFF7A4FA25E0E448844209D10121080417
:10164000FFF78EFA002101200004FFF789FA18E065
:10165000DE48844209D101214804FFF781FA0021C4
:1016600001204004FFF77CFA0BE0D948844208D1FE
:1016700001218804FFF774FA002101208004FFF79C
:101680006FFA10BD00220288CB4B984206D001238E
:101690009B07984202D0C94B984203D1CD4B1A40C8
:1016A0004B881A43C64B984203D0CB4B1A400B8948
:1016B0001A4302804B68C3620B880385BE4B984275
:1016C00008D0C14B984205D0C04B984202D0C04BC5
:1016D000984201D18B7A03860123838270470021CF
:1016E000C9434160002101800181418081727047BE
:1016F0000185828270470A4600210188B54B194056
:101700000B46134319460180704741627047C1621E
:1017100070470146486A70470146088D70470029A6
:1017200004D0028802231A43028004E00288A94BF5
:101730006E331A4002807047002904D002880423C7
:101740001A43028004E00288A24B6C331A400280E4
:101750007047002904D0028880231A43028004E0E5
:1017600002889C4B103B1A40028070470288994BBC
:1017700068331A40028002880A4302807047028858
:10178000954B1A40028002880A4302807047002964
:1017900004D0028801231A43028004E002888D4BA2
:1017A0006F331A40028070470A884B881A438B882F
:1017B0001A43CB881A430B891A434B891A438B89E6
:1017C0001A4344231A5270470021018041808180CE
:1017D000C1800181418181817047002907D0442265
:1017E000125A0123DB031A4344231A5205E0442210
:1017F000125A53045B0C44221352704770B50024F4
:1018000000220023058C734E6F3635400584028C10
:101810008388048B6F4D2C40B51E2C400D882C43C3
:10182000751E2A408D892A434D882A43624DA8425D
:1018300008D0654DA84205D0644DA84202D0644D41
:10184000A84212D1634D68352A40CD892A43614DA3
:101850006C352A408D882A435E4D903D2B405F4D6C
:101860002B400D8A2B434D8A2B43838004838D6844
:101870004563028470BD70B5002400220023058CEE
:10188000544E603635400584028C8388048B544D59
:101890002C40514D2C400D782D062D0C2C434D4DD8
:1018A00050352A408D892D052D0C2A434D882D0554
:1018B0002D0C2A43404DA84219D1464D103D2A40D7
:1018C000CD892D052D0C2A43424D30352A408D8877
:1018D0002D052D0C2A43434D2B40434D2B400D8AA3
:1018E000AD042D0C2B434D8AAD042D0C2B4383806E
:1018F00004838D688563028470BD70B50024002266
:101900000023058C334E903E35400584028C83883D
:10191000848B304D2C402F4D6D352C400D882C4341
:101920002E4D2A400D7B2D062D0C2A438D782D0639
:101930002D0C2A43204DA84217D12B4D2A408D7BD8
:101940002D062D0C2A43274D2A400D792D062D0CEE
:101950002A43264D2B40264D2B400D8A2D052D0C5C
:101960002B434D8A2D052D0C2B43838084838D685A
:10197000C563028470BD70B5002200230024058C6D
:101980001A4E35400584038C8488828B144D2A407E
:10199000114D2A400D782D062D0C2A43144D2B4055
:1019A0000D7B2D072D0C2B438D782D072D0C2B43F4
:1019B000014DA84224D11DE0002C0140000400404C
:1019C0000010004000200040004001400044014061
:1019D000004801408FFF0000FFFC0000FFFD0000F9
:1019E000FF8F0000FFFB0000FFF70000FFEF00008B
:1019F000FFDF0000FC4D2C400D8AAD052D0C2C4363
:101A0000848082838D680564038470BD0021018019
:101A10004180818081608181C181018241827047E2
:101A200070B50346002000241846183001258D406B
:101A3000ACB21D8CA5431D84002901D0082909D111
:101A40004D10281805687026B543056005681543D4
:101A500005600DE00D1F2D046D0C28180568072684
:101A60003603B543056005681606360C3543056038
:101A700070BD4163704781637047C1637047016403
:101A800070470A460021018BD84B19400B4613437F
:101A90001946018370470A460021018BD44B194037
:101AA00013061B0C1943018370470A460021818BE2
:101AB000CE4B19400B4613431946818370470A46A3
:101AC0000021818BCA4B194013061B0C19438183DB
:101AD0007047002904D0828801231A43828004E0E1
:101AE0008288C24B6F331A40828070470A460021B9
:101AF000018BBE4B683319400B46134319460183D3
:101B000070470A460021018BBA4B194013061B0C83
:101B10001943018370470A460021818BB34B683318
:101B200019400B4613431946818370470A4600212A
:101B3000818BB04B194013061B0C194381837047EE
:101B40000A460021018BA94B6C3319400B46134305
:101B50001946018370470A460021018BA64B1940A4
:101B600013061B0C1943018370470A460021818B21
:101B70009E4B6C3319400B461343194681837047C3
:101B80000A460021818B9C4B194013061B0C1943FC
:101B9000818370470A460021018B944B103B19400A
:101BA0000B4613431946018370470A460021018BF7
:101BB0004904490C13061B0C1943018370470A465C
:101BC0000021818B894B103B19400B46134319466A
:101BD000818370470A460021818B4904490C130612
:101BE0001B0C1943818370470A460021018C7F4BEF
:101BF0006E3319400B4613431946018470470A4659
:101C00000021018C794B683319400B461343194668
:101C1000018470470A460021018C744B50331940EF
:101C200013051B0C1943018470470A460021018CDF
:101C30006E4B103B194013051B0C19430184704770
:101C40000A460021018C6D4B194013061B0C1943E9
:101C5000018470470A460021018C664B1940130627
:101C60001B0C1943018470470A460021018C644B08
:101C7000194013071B0C19430184704702895B4B01
:101C800068331A40028102890A430281704730B5E5
:101C9000002301248C40A3B2048C9C430484048C54
:101CA00015468D40ADB22C43048430BD30B50023C1
:101CB00004248C40A3B2048C9C430484048C1546F9
:101CC0008D40ADB22C43048430BD002904D08288FD
:101CD00004231A43828004E08288444B6C331A4008
:101CE00082807047828B474B1A408283828B0B061F
:101CF0001B0C1A4382837047F8B50C46002100255F
:101D000000260096068C404F3E400684818B058C51
:101D10002607360C00963D4E31401606360C3143F0
:101D20001E07360C31433A4E354001273F03009ED3
:101D30003E43354381830584F8BD828B2B4B64334E
:101D40001A408283828B0A4382837047F8B50C461F
:101D50000021002500260096068C244F903F3E402F
:101D60000684818B058C2606360C00961F4E833E1A
:101D700031401E05360C16433143264E3540FF27B1
:101D80000137009E3E43354381830584F8BD028BB5
:101D90001C4B1A400283028B0B061B0C1A43028356
:101DA0007047F8B50C460021002500260096068CE9
:101DB0000E4F60373E400684018B058C2605360C9D
:101DC0000096124E31401E07360C31431606360C73
:101DD0003143064E303E35401027009E3E4335438A
:101DE00001830584F8BD0000FFBF00008FFF0000E5
:101DF000FF8F0000FFF70000FFFB0000FFFD000069
:101E0000FFDF0000FFF30000FFEF0000FF0C000009
:101E1000FF5F0000FFF50000028BD84B1A400283E1
:101E2000028B0A4302837047F0B50C46002100255F
:101E3000068CD24F0B373E400684018B058CCF4E6B
:101E4000E73E31401E05360C16433143CB4EB61CDF
:101E5000354001262643354301830584F0BD70B526
:101E600005460C46208800280AD12389A28861886B
:101E70002846FFF7D9FFE1882846FFF7CDFF25E088
:101E8000208804280AD12389A28861882846FFF780
:101E900088FFE1882846FFF77AFF17E020880828A6
:101EA0000AD12389A28861882846FFF74FFFE1887D
:101EB0002846FFF742FF09E02389A2886188284667
:101EC000FFF71AFFE1882846FFF70CFF70BD0021DD
:101ED00001804180012181800021C1800181704702
:101EE000F8B505460C46002601276088002801D178
:101EF000022600E00026A088012801D1022700E088
:101F000001272088002814D12389A28861882846C7
:101F1000FFF78AFFE1882846FFF77EFF23893A46CC
:101F200031462846FFF73DFFE1882846FFF72FFF9F
:101F300013E02389A28861882846FFF732FFE188F1
:101F40002846FFF724FF23893A4631462846FFF703
:101F50006BFFE1882846FFF75FFFF8BD0146486B3D
:101F600070470146886B70470146C86B7047014651
:101F7000086C7047002A03D083890B43838102E0F9
:101F800083898B438381704781827047024600209A
:101F9000138A0B4201D0012000E000207047CA43A1
:101FA0000282704730B50246002000230024158AC3
:101FB0000D402B4695890D402C46002B03D0002C5C
:101FC00001D0012000E0002030BDCA4302827047EA
:101FD00010B50B4613434824235210BD002A03D0EA
:101FE00083890B43838102E083898B43838170471C
:101FF000002904D0828808231A43828004E0828862
:102000005E4B1B1D1A408280704701895B4A521D3E
:102010001140018170470A4600210189574B643BFA
:1020200019400B46134319460181704730B50446E9
:102030000D4629462046FFF7EEFF20890721084379
:10204000208130BDF8B504460D4616461F46602D6A
:1020500006D13B46012231462046FFF7A2FE05E0AD
:102060003B46012231462046FFF7DEFE2946204648
:10207000FFF7D1FF2089072108432081F8BD30B543
:102080000C4600210189C9B21D062D0C15432543BC
:102090002943018130BDFFB505460E461746002491
:1020A0003A4631462846039BFFF7E9FF2C8933481F
:1020B000401D044007200443304864380440702029
:1020C00004432C81FFBDF0B504460D4616461F465D
:1020D0003B46324629462046FFF7D1FF20890121A1
:1020E000890308432081F0BD8288244B643B1A4059
:1020F000828082880A438280704702891F4B5B1D61
:102100001A40028102890A430281704702891B4BEF
:10211000743B1A40028102890A4302817047F0B57C
:102120000C460021002500260189058B068C134FE3
:102130007F1D39400F4627433946114F3D40FF2749
:1021400002373D430D4F9E3F3E401F053F0C174356
:102150003E43018105830684F0BD002904D08288B6
:1021600080231A43828004E08288044B743B1A4027
:10217000828070475022115270470000F3FF000028
:10218000FCFC000010B50446B348844207D101218D
:102190004015FEF7E5FC00216015FEF7E1FC10BDDF
:1021A00010B50022C268AD4B1A400C7964030B686D
:1021B00023438C682343CC6823430C6923434C6935
:1021C00023431A43C26010BD002101600171816088
:1021D000C160016141617047002904D08268012318
:1021E0001A43826003E0826802231A4382607047C8
:1021F000002A03D003690B43036102E003698B43A8
:1022000003617047002905D0C2680123DB031A432C
:10221000C26004E0C2680123DB039A43C2607047D6
:10222000002905D0C26801239B031A43C26004E061
:10223000C26801239B039A43C2607047002905D0FE
:10224000C2680123DB051A43C26004E0C2680123AF
:10225000DB059A43C26070470B0413430362704767
:1022600010B50A460021C1681F24A4060B46A343EB
:1022700019460B4613431946C16010BD002905D00D
:10228000C26801239B051A43C26004E0C2680123AF
:102290009B059A43C2607047002807D0704989683F
:1022A0000122D20511436E4A916006E06C498968AB
:1022B0000122D20591436A4A91607047002807D0F5
:1022C00067498968012292051143654A916006E0D9
:1022D00063498968012292059143614A9160704780
:1022E000002807D05E4989680122120611435C4A22
:1022F000916006E05A498968012212069143584AC2
:102300009160704710B50B460021846A1C438462BB
:1023100000BF0C4614432146416110BD002905D081
:10232000C26801235B031A43C26004E0C268012350
:102330005B039A43C2607047002905D0C26801233D
:102340001B041A43C26004E0C26801231B049A43C1
:10235000C2607047002905D0C26801231B031A43DD
:10236000C26004E0C26801231B039A43C260704745
:1023700030B501460020002200238C680125ED07BE
:102380002C438C6000BF8C68E30FDB07521C0F24CA
:102390002403A24201D0002BF5D18C68E40FE4079E
:1023A00001D1086C00E0002030BD8168102211438B
:1023B0008160704781680422114381607047014643
:1023C000086C80B27047002904D0C26801231A4308
:1023D000C26003E0C26852085200C2607047C2681F
:1023E00002239A43C260C2680A43C2607047002A4F
:1023F00003D043680B43436002E043688B43436070
:10240000704730B5024600200023012424062142F3
:1024100005D0946801252D06AC43234600E01368DF
:102420001C460C4201D0012000E0002030BD0160BC
:10243000704710B502460020002354680C40234624
:1024400014680C4203D0002B01D0012000E00020D2
:1024500010BD0160704700000024014003D2FFFF5F
:10246000002701403A4800688007800F384908601B
:102470000020886000213648C160016141618069A7
:10248000FF2101310843324988617047014600202D
:102490002F4A10688008800002460A4310462C4AE2
:1024A00010607047002905D0294A12680243284B62
:1024B0001A6004E0264A12688243254B1A6070476E
:1024C000002905D0224A12680243214B1A6004E019
:1024D0001F4A126882431E4B1A60704730B50022B3
:1024E0008B071C0F0F23A3401A46194B08338C107F
:1024F000A4001B599343164C08348D10AD00635152
:1025000023468C10A4001B598C07250F0446AC40B1
:1025100023430F4C08348D10AD00635130BD0C497E
:10252000896901430A4A9161704701460020084ABF
:102530009269FF2301331A4201D0012000E00020FC
:102540007047034989690143014A9161704700005E
:10255000000001403D483E49086000204860886016
:10256000C8603C4848617047002139498279002A97
:1025700035D00A46126803689A430B461A600A4629
:10258000526803689A430B465A60027951180A68E8
:1025900003681A430A602E4A926803689A432C4BD8
:1025A0009A601A46D26803689A43294BDA604279E6
:1025B000102A0CD11A46926803681A43244B9A6079
:1025C0001A46D26803681A43214BDA600DE02049AD
:1025D000427951180A6803681A430A6005E00279D3
:1025E00051180A6803689A430A6070470021016025
:1025F00001710C21417100218171704714490969F1
:102600000143134A1161704701460020104A526984
:102610000A4201D0012000E0002070470C494861C7
:102620007047014600200022094B1B680B401A46E8
:10263000074B5B690B4203D0002A01D0012000E068
:102640000020704702494861704700000000940F65
:1026500000040140FFFF6B0000B589B00121480470
:10266000FEF746FA01218803FEF750FA01220921FC
:10267000C806FDF798FF01220A210920C006FDF7D0
:1026800092FF032040020790022108A80170002158
:1026900081700121C1700321417007A90920C00682
:1026A000FDF700FF1B216846017601214176817606
:1026B00006A8FEF753FD4B20C001009000200190BA
:1026C0000290039005900C20049069462348FEF781
:1026D000A9FA012222492148FEF7D0FC01211F4816
:1026E000FEF737FB40211D48FEF705FD09B000BD90
:1026F00000BF1A49C96980221142FAD01749203116
:10270000088170470BE000BF144AD26980231A4247
:10271000FAD00278114B20331A81401C491E00293F
:10272000F1D1704700BF0D48C06920210842FAD09E
:102730000A4820308088C0B2704770B504460D4604
:10274000E1B20648FEF7BCFB00BF80210348FEF75C
:10275000C9FC0028F9D0204670BD000000380140B7
:10276000050105001CB501214804FEF7C1F9FF2051
:102770000130009001216846017100218171012121
:10278000417169460920C006FDF78CFEFF21013129
:102790000920C006FDF7FDFE1CBD10B5FF2101316B
:1027A0000920C006FDF7F3FE10BD10B5FF21013171
:1027B0000920C006FDF7EDFE10BD10B5FF21013167
:1027C0000920C006FDF7D7FE0121081AC4B222462F
:1027D00009020920C006FDF7DEFE10BD00B593B06A
:1027E00001214804FEF784F910201190032110A85C
:1027F00001720021C17211A90920C006FDF752FE25
:1028000001214807FEF790F924200F900020109036
:102810000FA9FEF776FD01210020FEF78AFD0121B8
:102820000846FEF781F90CA8FEF759FF21480D90E4
:102830001A21684601860021018741860CA90120E2
:102840008007FEF71FFF20214806FFF74DFC0121FE
:102850008807FEF79CFF01210846FEF749F9164854
:10286000FEF7F4FD154801901548029010200390E2
:10287000882004900020059080200690400007905A
:102880008000089000200990012040030A90002059
:102890000B9001A90848FEF725FE01210648FEF726
:1028A0004BFE13B000BD10B501210020FEF778FDEE
:1028B00010BD0000FFFF000030000240087400401F
:1028C000DA2D00081CB501214804FEF711F901209A
:1028D00000030090012168460171002181710121EE
:1028E000C171417169460920C006FDF7DBFD012178
:1028F00009030920C006FDF74CFE1CBD002106E0BF
:10290000002200E0521C3A4B9A42FBDB491C8142F8
:10291000F6DB704710B5012109030920C006FDF759
:1029200038FE10BD10B5012109030920C006FDF7CE
:102930002EFE10BD10B5012109030920C006FDF7C8
:102940001AFE0121081AC4B2224609030920C00652
:10295000FDF721FE10BD10B5012109030920C006B5
:10296000FDF717FE1420FFF7C9FF01210903092015
:10297000C006FDF70CFE1420FFF7C0FF012109037C
:102980000920C006FDF705FE6420FFF7B7FF01210F
:1029900009030920C006FDF7FAFD1420FFF7AEFF7A
:1029A00010BD10B5012109030920C006FDF7F1FD96
:1029B0001420FFF7A3FF012109030920C006FDF73A
:1029C000E6FD1420FFF79AFF012109030920C00644
:1029D000FDF7DFFD1420FFF791FF01210903092016
:1029E000C006FDF7D4FD1420FFF788FF10BD0000DE
:1029F00080BB000000B585B001210846FEF786F8CF
:102A000001214804FEF774F807216846017000218F
:102A1000417001218170FEF7A1FB6020039000212D
:102A200068460174022141740021C17403A9092080
:102A3000C006FDF737FD60210920C006FDF7A9FD9E
:102A400007210020FFF74AFD602001900021684621
:102A500001720C2141720121817201A8FFF784FDEE
:102A600005B000BD1CB501214804FEF741F8012066
:102A7000C00200900121684601710021817101218D
:102A8000417169460920C006FDF70CFD0121C9020C
:102A90000920C006FDF77BFD1CBD10B50121C90250
:102AA0000920C006FDF773FD10BD10B50121C90254
:102AB0000920C006FDF76DFD10BD10B50121C9024A
:102AC0000920C006FDF757FD0121081AC4B22246AD
:102AD000C9020920C006FDF75EFD10BD1CB501212D
:102AE0004804FEF705F80C200090032168460171A8
:102AF0000021C17169460920C006FDF7D3FC1CBD49
:102B00001CB501218804FDF7F3FF03200090032189
:102B1000684601710021C17169463A48FDF7C2FC5F
:102B20001CBD00B591B001214802FDF7EFFF012166
:102B30000846FDF7DDFF3448FFF724FB0BA8FFF73D
:102B400043FB00200B90012008A9087400200D9081
:102B50000F9010900BA92C48FFF722FB05220421AF
:102B60002948FFF7CFFB052208212748FFF7CAFBBA
:102B70000522FF2101312448FFF7C4FB0522012172
:102B800049022148FFF7BEFB1F48FFF7F1FB012177
:102B90001D48FFF721FB00BF1C491B48FFF731FC14
:102BA0000028F9D01848FFF705FC1948FEF74EFC3D
:102BB00015484030009017480190002002902820CE
:102BC0000390002004908020059040000690800033
:102BD0000790202008900002099000200A90694682
:102BE0000B48FEF77FFC01210948FEF7A5FC0221F6
:102BF0000548FFF7F4FB01210348FFF7E4FB11B0A0
:102C000000BD000000040048002401400100000154
:102C10000800024024000020002203098B422CD32C
:102C2000030A8B4211D300239C464EE003460B431C
:102C30003CD4002243088B4231D303098B421CD37E
:102C4000030A8B4201D394463FE0C3098B4201D370
:102C5000CB01C01A524183098B4201D38B01C01AA8
:102C6000524143098B4201D34B01C01A524103091F
:102C70008B4201D30B01C01A5241C3088B4201D3CE
:102C8000CB00C01A524183088B4201D38B00C01A7B
:102C9000524143088B4201D34B00C01A5241411AA2
:102CA00000D201465241104670475DE0CA0F00D085
:102CB0004942031000D34042534000229C4603097E
:102CC0008B422DD3030A8B4212D3FC22890112BA04
:102CD000030A8B420CD3890192118B4208D38901DC
:102CE00092118B4204D389013AD0921100E08909F4
:102CF000C3098B4201D3CB01C01A524183098B42D5
:102D000001D38B01C01A524143098B4201D34B01BD
:102D1000C01A524103098B4201D30B01C01A524120
:102D2000C3088B4201D3CB00C01A524183088B42A7
:102D300001D38B00C01A5241D9D243088B4201D330
:102D40004B00C01A5241411A00D20146634652411B
:102D50005B10104601D34042002B00D5494270471A
:102D600063465B1000D3404201B50020C046C04618
:102D700002BD704770477047754600F023F8AE46B5
:102D8000050069465346C008C000854618B020B506
:102D9000FDF7F4F960BC00274908B6460026C0C517
:102DA000C0C5C0C5C0C5C0C5C0C5C0C5C0C5403D03
:102DB00049008D4670470446C046C0462046FDF790
:102DC000CCF9000000487047740000200149182029
:102DD000ABBEFEE7260002007047730587059B0522
:102DE000AF05C305D705EB05FF05130627063B0610
:102DF0004F06630677068B069F06B306C706DB06FB
:102E0000EF06030717072B073F07530767077B07E3
:102E10008F07A307B707CB07DF07F30707081B08D0
:102E20002F08430857086B087F089308A708BB08BA
:102E3000CF08E308F7080B091F09330947095B09A5
:102E40006F0983099709AB09BF09D309E709FB0992
:102E50000F0A230A370A4B0A5F0A730A870A9B0A7A
:102E6000AF0AC30AD70AEB0AFF0A130B270B3B0B67
:102E70004F0B630B770B8B0B9F0BB30BC70BDB0B52
:102E8000EF0B030C170C2B0C3F0C530C670C7B0C3B
:102E90008F0CA30CB70CCB0CDF0CF30C070D1B0D28
:102EA0002F0D430D570D6B0D7F0D930DA70DBB0D12
:102EB000CF0DE30DF70D0B0E1F0E330E470E5B0EFD
:102EC0006F0E830E970EAB0EBF0ED30EE70EFB0EEA
:102ED0000F0F230F370F4B0F5F0F730F870F9B0FD2
:102EE000AF0FC30FD70FEB0FFF0F00000033669932
:102EF000CCFF0000142F0008000000202400000078
:102F000004010008382F000824000020B406000047
:102F100020010008006CDC0200000000000000003E
:102F2000010203040607080900000000010203046F
:082F3000010203040607080971
:04000005080000C12E
:00000001FF
